{
  "contractName": "ContractReceiver",
  "abi": [
    {
      "constant": false,
      "inputs": [
        {
          "name": "_from",
          "type": "address"
        },
        {
          "name": "_value",
          "type": "uint256"
        },
        {
          "name": "_data",
          "type": "bytes"
        }
      ],
      "name": "tokenFallback",
      "outputs": [
        {
          "name": "",
          "type": "bool"
        }
      ],
      "payable": false,
      "stateMutability": "nonpayable",
      "type": "function"
    }
  ],
  "bytecode": "0x608060405234801561001057600080fd5b50610125806100206000396000f300608060405260043610603f576000357c0100000000000000000000000000000000000000000000000000000000900463ffffffff168063c0ee0b8a146044575b600080fd5b348015604f57600080fd5b5060d2600480360381019080803573ffffffffffffffffffffffffffffffffffffffff16906020019092919080359060200190929190803590602001908201803590602001908080601f016020809104026020016040519081016040528093929190818152602001838380828437820191505050505050919291929050505060ec565b604051808215151515815260200191505060405180910390f35b60006001905093925050505600a165627a7a723058203e61246ce9afb21f07c65882b9681ac90853f66752e2970f1f15fc36322f7de50029",
  "source": "pragma solidity ^0.4.24;\n\ncontract ContractReceiver {\n    function tokenFallback(address _from, uint _value, bytes _data) public returns(bool) {\n        return true;\n    }\n}\n",
  "sourcePath": "/Users/ilanolkies/Code/rif/rif-faucet/contracts/tokens/ContractReceiver.sol",
  "compiler": {
    "name": "solc",
    "version": "0.4.24+commit.e67f0147.Emscripten.clang"
  },
  "schemaVersion": "3.0.5",
  "updatedAt": "2019-04-26T19:31:49.163Z",
  "devdoc": {
    "methods": {}
  },
  "userdoc": {
    "methods": {}
  }
}