{
  "contractName": "TokenFaucet",
  "abi": [
    {
      "constant": true,
      "inputs": [],
      "name": "dispenseValue",
      "outputs": [
        {
          "name": "",
          "type": "uint256"
        }
      ],
      "payable": false,
      "stateMutability": "view",
      "type": "function",
      "signature": "0x51ae1f2a"
    },
    {
      "constant": true,
      "inputs": [],
      "name": "tokenContract",
      "outputs": [
        {
          "name": "",
          "type": "address"
        }
      ],
      "payable": false,
      "stateMutability": "view",
      "type": "function",
      "signature": "0x55a373d6"
    },
    {
      "constant": true,
      "inputs": [],
      "name": "owner",
      "outputs": [
        {
          "name": "",
          "type": "address"
        }
      ],
      "payable": false,
      "stateMutability": "view",
      "type": "function",
      "signature": "0x8da5cb5b"
    },
    {
      "inputs": [
        {
          "name": "_tokenContract",
          "type": "address"
        }
      ],
      "payable": false,
      "stateMutability": "nonpayable",
      "type": "constructor",
      "signature": "constructor"
    },
    {
      "constant": false,
      "inputs": [],
      "name": "recover",
      "outputs": [],
      "payable": false,
      "stateMutability": "nonpayable",
      "type": "function",
      "signature": "0xce746024"
    },
    {
      "constant": false,
      "inputs": [
        {
          "name": "to",
          "type": "address"
        }
      ],
      "name": "dispense",
      "outputs": [],
      "payable": false,
      "stateMutability": "nonpayable",
      "type": "function",
      "signature": "0x5f746233"
    },
    {
      "constant": false,
      "inputs": [
        {
          "name": "value",
          "type": "uint256"
        }
      ],
      "name": "setDispenseValue",
      "outputs": [],
      "payable": false,
      "stateMutability": "nonpayable",
      "type": "function",
      "signature": "0xa84f618f"
    }
  ],
  "bytecode": "0x6080604052670de0b6b3a764000060035534801561001c57600080fd5b5060405160208061074e83398101806040528101908080519060200190929190505050336000806101000a81548173ffffffffffffffffffffffffffffffffffffffff021916908373ffffffffffffffffffffffffffffffffffffffff16021790555080600160006101000a81548173ffffffffffffffffffffffffffffffffffffffff021916908373ffffffffffffffffffffffffffffffffffffffff1602179055505061067e806100d06000396000f300608060405260043610610078576000357c0100000000000000000000000000000000000000000000000000000000900463ffffffff16806351ae1f2a1461007d57806355a373d6146100a85780635f746233146100ff5780638da5cb5b14610142578063a84f618f14610199578063ce746024146101c6575b600080fd5b34801561008957600080fd5b506100926101dd565b6040518082815260200191505060405180910390f35b3480156100b457600080fd5b506100bd6101e3565b604051808273ffffffffffffffffffffffffffffffffffffffff1673ffffffffffffffffffffffffffffffffffffffff16815260200191505060405180910390f35b34801561010b57600080fd5b50610140600480360381019080803573ffffffffffffffffffffffffffffffffffffffff169060200190929190505050610209565b005b34801561014e57600080fd5b506101576103a7565b604051808273ffffffffffffffffffffffffffffffffffffffff1673ffffffffffffffffffffffffffffffffffffffff16815260200191505060405180910390f35b3480156101a557600080fd5b506101c4600480360381019080803590602001909291905050506103cc565b005b3480156101d257600080fd5b506101db610431565b005b60035481565b600160009054906101000a900473ffffffffffffffffffffffffffffffffffffffff1681565b8042600260008373ffffffffffffffffffffffffffffffffffffffff1673ffffffffffffffffffffffffffffffffffffffff1681526020019081526020016000205410151561025757600080fd5b600160009054906101000a900473ffffffffffffffffffffffffffffffffffffffff1673ffffffffffffffffffffffffffffffffffffffff1663a9059cbb836003546040518363ffffffff167c0100000000000000000000000000000000000000000000000000000000028152600401808373ffffffffffffffffffffffffffffffffffffffff1673ffffffffffffffffffffffffffffffffffffffff16815260200182815260200192505050602060405180830381600087803b15801561031e57600080fd5b505af1158015610332573d6000803e3d6000fd5b505050506040513d602081101561034857600080fd5b810190808051906020019092919050505050620151804201600260008473ffffffffffffffffffffffffffffffffffffffff1673ffffffffffffffffffffffffffffffffffffffff168152602001908152602001600020819055505050565b6000809054906101000a900473ffffffffffffffffffffffffffffffffffffffff1681565b6000809054906101000a900473ffffffffffffffffffffffffffffffffffffffff1673ffffffffffffffffffffffffffffffffffffffff163373ffffffffffffffffffffffffffffffffffffffff1614151561042757600080fd5b8060038190555050565b6000600160009054906101000a900473ffffffffffffffffffffffffffffffffffffffff1673ffffffffffffffffffffffffffffffffffffffff166370a08231306040518263ffffffff167c0100000000000000000000000000000000000000000000000000000000028152600401808273ffffffffffffffffffffffffffffffffffffffff1673ffffffffffffffffffffffffffffffffffffffff168152602001915050602060405180830381600087803b1580156104f057600080fd5b505af1158015610504573d6000803e3d6000fd5b505050506040513d602081101561051a57600080fd5b81019080805190602001909291905050509050600160009054906101000a900473ffffffffffffffffffffffffffffffffffffffff1673ffffffffffffffffffffffffffffffffffffffff1663a9059cbb6000809054906101000a900473ffffffffffffffffffffffffffffffffffffffff16836040518363ffffffff167c0100000000000000000000000000000000000000000000000000000000028152600401808373ffffffffffffffffffffffffffffffffffffffff1673ffffffffffffffffffffffffffffffffffffffff16815260200182815260200192505050602060405180830381600087803b15801561061357600080fd5b505af1158015610627573d6000803e3d6000fd5b505050506040513d602081101561063d57600080fd5b810190808051906020019092919050505050505600a165627a7a723058200b4bc369c9f0f95b7c80085822776eeaa62644349247201bcf7fcb9bcda63f350029",
  "source": "pragma solidity >=0.4.21 <0.6.0;\n\nimport \"./tokens/ERC677TokenContract.sol\";\n\ncontract TokenFaucet {\n    address public owner;\n    ERC677TokenContract public tokenContract;\n\n    mapping (address => uint) cannotDispenseUntil;\n\n    uint public dispenseValue = 1 * 10**18;\n\n    modifier onlyOwner () {\n        require(msg.sender == owner);\n        _;\n    }\n\n    modifier canDispense (address to) {\n        require(cannotDispenseUntil[to] < now);\n        _;\n    }\n\n    constructor (ERC677TokenContract _tokenContract) public {\n        owner = msg.sender;\n        tokenContract = _tokenContract;\n    }\n\n    function recover () public {\n        uint totalAmount = tokenContract.balanceOf(address(this));\n        tokenContract.transfer(owner, totalAmount);\n    }\n\n    function dispense (address to) public canDispense(to) {\n        tokenContract.transfer(to, dispenseValue);\n        cannotDispenseUntil[to] = now + 1 days;\n    }\n\n    function setDispenseValue (uint value) public onlyOwner() {\n        dispenseValue = value;\n    }\n}\n",
  "sourcePath": "/Users/ilanolkies/Code/rif/rif-faucet/contracts/TokenFaucet.sol",
  "compiler": {
    "name": "solc",
    "version": "0.4.24+commit.e67f0147.Emscripten.clang"
  },
  "schemaVersion": "3.0.5",
  "updatedAt": "2019-04-26T19:34:14.910Z",
  "devdoc": {
    "methods": {}
  },
  "userdoc": {
    "methods": {}
  }
}